{
  "contractName": "Faucet",
  "abi": [
    {
      "inputs": [
        {
          "internalType": "address",
          "name": "",
          "type": "address"
        }
      ],
      "name": "funders",
      "outputs": [
        {
          "internalType": "bool",
          "name": "",
          "type": "bool"
        }
      ],
      "stateMutability": "view",
      "type": "function",
      "constant": true
    },
    {
      "inputs": [
        {
          "internalType": "uint256",
          "name": "",
          "type": "uint256"
        }
      ],
      "name": "lutFunders",
      "outputs": [
        {
          "internalType": "address",
          "name": "",
          "type": "address"
        }
      ],
      "stateMutability": "view",
      "type": "function",
      "constant": true
    },
    {
      "inputs": [],
      "name": "numOfFunders",
      "outputs": [
        {
          "internalType": "uint256",
          "name": "",
          "type": "uint256"
        }
      ],
      "stateMutability": "view",
      "type": "function",
      "constant": true
    },
    {
      "inputs": [],
      "name": "owner",
      "outputs": [
        {
          "internalType": "address",
          "name": "",
          "type": "address"
        }
      ],
      "stateMutability": "view",
      "type": "function",
      "constant": true
    },
    {
      "inputs": [],
      "name": "test5",
      "outputs": [
        {
          "internalType": "uint256",
          "name": "",
          "type": "uint256"
        }
      ],
      "stateMutability": "pure",
      "type": "function",
      "constant": true
    },
    {
      "inputs": [],
      "name": "testNum",
      "outputs": [
        {
          "internalType": "uint256",
          "name": "",
          "type": "uint256"
        }
      ],
      "stateMutability": "view",
      "type": "function",
      "constant": true
    },
    {
      "stateMutability": "payable",
      "type": "receive",
      "payable": true
    },
    {
      "inputs": [],
      "name": "emitLog",
      "outputs": [
        {
          "internalType": "bytes32",
          "name": "",
          "type": "bytes32"
        }
      ],
      "stateMutability": "pure",
      "type": "function",
      "constant": true
    },
    {
      "inputs": [],
      "name": "addFunds",
      "outputs": [],
      "stateMutability": "payable",
      "type": "function",
      "payable": true
    },
    {
      "inputs": [],
      "name": "test1",
      "outputs": [],
      "stateMutability": "nonpayable",
      "type": "function"
    },
    {
      "inputs": [],
      "name": "test2",
      "outputs": [],
      "stateMutability": "nonpayable",
      "type": "function"
    },
    {
      "inputs": [
        {
          "internalType": "uint256",
          "name": "widthdrawAmount",
          "type": "uint256"
        }
      ],
      "name": "withdraw",
      "outputs": [],
      "stateMutability": "nonpayable",
      "type": "function"
    },
    {
      "inputs": [],
      "name": "getAllFunders",
      "outputs": [
        {
          "internalType": "address[]",
          "name": "",
          "type": "address[]"
        }
      ],
      "stateMutability": "view",
      "type": "function",
      "constant": true
    },
    {
      "inputs": [
        {
          "internalType": "uint8",
          "name": "index",
          "type": "uint8"
        }
      ],
      "name": "getFunderAtIndex",
      "outputs": [
        {
          "internalType": "address",
          "name": "",
          "type": "address"
        }
      ],
      "stateMutability": "view",
      "type": "function",
      "constant": true
    }
  ],
  "bytecode": "0x608060405234801561001057600080fd5b50336000806101000a81548173ffffffffffffffffffffffffffffffffffffffff021916908373ffffffffffffffffffffffffffffffffffffffff1602179055506103e8600181905550610cf1806100696000396000f3fe6080604052600436106100e3576000357c0100000000000000000000000000000000000000000000000000000000900480636b59084d1161009c578063a26759cb11610076578063a26759cb1461027e578063ae28f1ed14610288578063af7f2c9b146102b3578063f42c13bf146102de576100ea565b80636b59084d146102115780636fbbb55d146102285780638da5cb5b14610253576100ea565b8063031b3677146100ef5780630a93cf331461012c5780631ad7be82146101695780631f8947ea146101945780632e1a7d4d146101d157806366e41cb7146101fa576100ea565b366100ea57005b600080fd5b3480156100fb57600080fd5b506101166004803603810190610111919061088d565b610309565b6040516101239190610a4c565b60405180910390f35b34801561013857600080fd5b50610153600480360381019061014e91906108df565b610329565b6040516101609190610a0f565b60405180910390f35b34801561017557600080fd5b5061017e610382565b60405161018b9190610ac2565b60405180910390f35b3480156101a057600080fd5b506101bb60048036038101906101b691906108b6565b610394565b6040516101c89190610a0f565b60405180910390f35b3480156101dd57600080fd5b506101f860048036038101906101f391906108b6565b6103c7565b005b34801561020657600080fd5b5061020f61045e565b005b34801561021d57600080fd5b506102266104ee565b005b34801561023457600080fd5b5061023d61057e565b60405161024a9190610a2a565b60405180910390f35b34801561025f57600080fd5b506102686106c4565b6040516102759190610a0f565b60405180910390f35b6102866106e8565b005b34801561029457600080fd5b5061029d610811565b6040516102aa9190610ac2565b60405180910390f35b3480156102bf57600080fd5b506102c8610817565b6040516102d59190610ac2565b60405180910390f35b3480156102ea57600080fd5b506102f361081d565b6040516103009190610a67565b60405180910390f35b60036020528060005260406000206000915054906101000a900460ff1681565b60008061033461057e565b9050808360ff1681518110610372577f4e487b7100000000000000000000000000000000000000000000000000000000600052603260045260246000fd5b6020026020010151915050919050565b600061038c610845565b506000905090565b60046020528060005260406000206000915054906101000a900473ffffffffffffffffffffffffffffffffffffffff1681565b80670de0b6b3a7640000811115610413576040517f08c379a000000000000000000000000000000000000000000000000000000000815260040161040a90610aa2565b60405180910390fd5b3373ffffffffffffffffffffffffffffffffffffffff166108fc839081150290604051600060405180830381858888f19350505050158015610459573d6000803e3d6000fd5b505050565b60008054906101000a900473ffffffffffffffffffffffffffffffffffffffff1673ffffffffffffffffffffffffffffffffffffffff163373ffffffffffffffffffffffffffffffffffffffff16146104ec576040517f08c379a00000000000000000000000000000000000000000000000000000000081526004016104e390610a82565b60405180910390fd5b565b60008054906101000a900473ffffffffffffffffffffffffffffffffffffffff1673ffffffffffffffffffffffffffffffffffffffff163373ffffffffffffffffffffffffffffffffffffffff161461057c576040517f08c379a000000000000000000000000000000000000000000000000000000000815260040161057390610a82565b60405180910390fd5b565b6060600060025467ffffffffffffffff8111156105c4577f4e487b7100000000000000000000000000000000000000000000000000000000600052604160045260246000fd5b6040519080825280602002602001820160405280156105f25781602001602082028036833780820191505090505b50905060005b6002548110156106bc576004600082815260200190815260200160002060009054906101000a900473ffffffffffffffffffffffffffffffffffffffff1682828151811061066f577f4e487b7100000000000000000000000000000000000000000000000000000000600052603260045260246000fd5b602002602001019073ffffffffffffffffffffffffffffffffffffffff16908173ffffffffffffffffffffffffffffffffffffffff168152505080806106b490610b86565b9150506105f8565b508091505090565b60008054906101000a900473ffffffffffffffffffffffffffffffffffffffff1681565b60003390506106f5610845565b50600360008273ffffffffffffffffffffffffffffffffffffffff1673ffffffffffffffffffffffffffffffffffffffff16815260200190815260200160002060009054906101000a900460ff1661080e5760006002600081548092919061075c90610b86565b9190505590506001600360008473ffffffffffffffffffffffffffffffffffffffff1673ffffffffffffffffffffffffffffffffffffffff16815260200190815260200160002060006101000a81548160ff021916908315150217905550336004600083815260200190815260200160002060006101000a81548173ffffffffffffffffffffffffffffffffffffffff021916908373ffffffffffffffffffffffffffffffffffffffff160217905550505b50565b60015481565b60025481565b60007f48656c6c6f20576f726c64000000000000000000000000000000000000000000905090565b60006064905090565b60008135905061085d81610c76565b92915050565b60008135905061087281610c8d565b92915050565b60008135905061088781610ca4565b92915050565b60006020828403121561089f57600080fd5b60006108ad8482850161084e565b91505092915050565b6000602082840312156108c857600080fd5b60006108d684828501610863565b91505092915050565b6000602082840312156108f157600080fd5b60006108ff84828501610878565b91505092915050565b60006109148383610920565b60208301905092915050565b61092981610b27565b82525050565b61093881610b27565b82525050565b600061094982610aed565b6109538185610b05565b935061095e83610add565b8060005b8381101561098f5781516109768882610908565b975061098183610af8565b925050600181019050610962565b5085935050505092915050565b6109a581610b39565b82525050565b6109b481610b45565b82525050565b60006109c7600a83610b16565b91506109d282610bfe565b602082019050919050565b60006109ea602383610b16565b91506109f582610c27565b604082019050919050565b610a0981610b6f565b82525050565b6000602082019050610a24600083018461092f565b92915050565b60006020820190508181036000830152610a44818461093e565b905092915050565b6000602082019050610a61600083018461099c565b92915050565b6000602082019050610a7c60008301846109ab565b92915050565b60006020820190508181036000830152610a9b816109ba565b9050919050565b60006020820190508181036000830152610abb816109dd565b9050919050565b6000602082019050610ad76000830184610a00565b92915050565b6000819050602082019050919050565b600081519050919050565b6000602082019050919050565b600082825260208201905092915050565b600082825260208201905092915050565b6000610b3282610b4f565b9050919050565b60008115159050919050565b6000819050919050565b600073ffffffffffffffffffffffffffffffffffffffff82169050919050565b6000819050919050565b600060ff82169050919050565b6000610b9182610b6f565b91507fffffffffffffffffffffffffffffffffffffffffffffffffffffffffffffffff821415610bc457610bc3610bcf565b5b600182019050919050565b7f4e487b7100000000000000000000000000000000000000000000000000000000600052601160045260246000fd5b7f4f6e6c79206f776e657200000000000000000000000000000000000000000000600082015250565b7f43616e6e6f74207769746864726177206d6f7265207468616e20302e3120657460008201527f6865720000000000000000000000000000000000000000000000000000000000602082015250565b610c7f81610b27565b8114610c8a57600080fd5b50565b610c9681610b6f565b8114610ca157600080fd5b50565b610cad81610b79565b8114610cb857600080fd5b5056fea26469706673582212205ba3f96f7101a2b8079addc4267a89df71daf829213d30e73a770dc648f547e364736f6c63430008040033",
  "immutableReferences": {},
  "source": "// SPDX-License-Identifier: MIT\r\npragma solidity >=0.4.22 <0.9.0;\r\n\r\nimport \"./Owned.sol\";\r\nimport \"./Logger.sol\";\r\nimport \"./IFaucet.sol\";\r\n\r\ncontract Faucet is Owned, Logger, IFaucet {\r\n    uint public numOfFunders;\r\n\r\n    mapping(address => bool) public funders;\r\n\r\n    //     mapping(uint => address)\r\n\r\n    // uint\r\n    // address\r\n    // \r\n    mapping(uint => address) public lutFunders;\r\n\r\n    // modifier \r\n\r\n    modifier limitWithdraw(uint widthdrawAmount) {\r\n        require(\r\n            widthdrawAmount <= 1000000000000000000,\r\n            \"Cannot withdraw more than 0.1 ether\"\r\n        );\r\n        // \r\n        _;\r\n    }\r\n\r\n    receive() external payable {}\r\n\r\n    function emitLog() public pure override returns (bytes32) {\r\n        return \"Hello World\";\r\n    }\r\n\r\n    function addFunds() external payable override {\r\n        address funder = msg.sender;\r\n\r\n        test3();\r\n        if (!funders[funder]) {\r\n            uint index = numOfFunders++;\r\n            funders[funder] = true;\r\n            lutFunders[index] = msg.sender;\r\n        }\r\n    }\r\n\r\n    function test1() external onlyOwner {}\r\n\r\n    function test2() external onlyOwner {}\r\n\r\n    function withdraw(\r\n        uint widthdrawAmount\r\n    ) external override limitWithdraw(widthdrawAmount) {\r\n        // payable msg.sender  payable  payable\r\n\r\n        payable(msg.sender).transfer(widthdrawAmount);\r\n    }\r\n\r\n    function getAllFunders() public view returns (address[] memory) {\r\n        address[] memory _funders = new address[](numOfFunders);\r\n        for (uint i = 0; i < numOfFunders; i++) {\r\n            _funders[i] = lutFunders[i];\r\n        }\r\n        return _funders;\r\n    }\r\n\r\n    function getFunderAtIndex(uint8 index) external view returns (address) {\r\n        address[] memory _funders = getAllFunders();\r\n        return _funders[index];\r\n    }\r\n}\r\n\r\n//const instance = await Faucet.deployed();\r\n\r\n//instance.addFunds({from: accounts[0],value: \"2000000000000000000\"})\r\n//instance.addFunds({from: accounts[1],value: \"2000000000000000000\"})\r\n\r\n// instance.withdraw(\"5000000000000000000\",{from:accounts[1]})\r\n\r\n// instance.getFunderAtIndex(0)\r\n// instance.getAllFunders()\r\n",
  "sourcePath": "D:\\project\\learn\\blockchain\\faucet\\contracts\\Faucet.sol",
  "compiler": {
    "name": "solc",
    "version": "0.8.4+commit.c7e474f2.Emscripten.clang"
  },
  "schemaVersion": "3.4.16",
  "updatedAt": "2024-06-21T05:23:47.242Z",
  "networkType": "ethereum",
  "devdoc": {
    "kind": "dev",
    "methods": {},
    "version": 1
  },
  "userdoc": {
    "kind": "user",
    "methods": {},
    "version": 1
  }
}